:100000000C9434000C943E000C943E000C943E0082
:100010000C943E000C943E000C943E000C943E0068
:100020000C943E000C943E000C943E000C943E0058
:100030000C943E000C943E000C943E000C943E0048
:100040000C943E000C943E000C943E000C943E0038
:100050000C943E000C943E000C943E000C943E0028
:100060000C943E000C943E0011241FBECFEFD8E04C
:10007000DEBFCDBF0E9456010C9473010C940000AA
:100080008AB182608AB98AB184608AB98AB188608B
:100090008AB98AB180618AB984B18E7F84B984B10A
:1000A0008D7F84B9089591E03AC0913081F04BB1D1
:1000B000692F70E06150710921E030E002C0220F29
:1000C000331F6A95E2F7209524232BB90FC04BB15B
:1000D000692F70E06F5F7F4F21E030E002C0220F98
:1000E000331F6A95E2F7209524232BB94BB121E009
:1000F00030E0092E02C0220F331F0A94E2F7242BAE
:100100002BB92FEF39E648E1215030404040E1F76C
:1001100000C00000189905C0199903C09F5F891796
:1001200020F6815028C04BB1682F70E06F5F7F4F81
:1001300021E030E0F90102C0EE0FFF1F6A95E2F7FF
:100140009E2F909594239BB99BB1082E02C0220F3D
:10015000331F0A94E2F7292B2BB9FFEF29E638E188
:10016000F15020403040E1F700C00000189905C070
:10017000199903C081508230B0F6089591E00DC006
:100180004BB121E030E0092E02C0220F331F0A9448
:10019000E2F7209524232BB99F5F492F50E0282FA9
:1001A00030E02F5F3F4F4217530754F308958BB150
:1001B00082608BB98BB184608BB92FEF83EC99E0AF
:1001C000215080409040E1F700C000008BB18D7F4E
:1001D0008BB98BB18B7F8BB92FEF83EC99E02150DA
:1001E00080409040E1F700C000008BB182608BB985
:1001F0008BB184608BB92FEF83EC99E02150804064
:100200009040E1F700C000008BB18D7F8BB98BB1BE
:100210008B7F8BB98BB188608BB98BB180618BB9C7
:100220002FEF83EC99E0215080409040E1F700C02F
:1002300000008BB1877F8BB98BB18F7E8BB92FEF8D
:1002400083EC99E0215080409040E1F700C000002D
:100250008BB188608BB98BB180618BB92FEF83EC48
:1002600099E0215080409040E1F700C000008BB140
:10027000877F8BB98BB18F7E8BB9089591E00CC0CD
:100280004BB121E030E0092E02C0220F331F0A9447
:10029000E2F7242B2BB99F5F492F50E0282F30E045
:1002A0002F5F3F4F421753075CF308950E944000B1
:1002B000189906C0199904C084E00E945300F8CF31
:1002C000189906C0199B04C084E00E94BE00F0CFBC
:1002D000189B05C0199903C00E94D700E9CF84E09C
:0A02E0000E943E01E5CFF894FFCF25
:00000001FF
