S0120000507261637469636130342E7372656387
S11300000C9444000C944E000C944E000C944E003E
S11300100C944E000C944E000C944E000C944E0024
S11300200C944E000C944E000C944E000C944E0014
S11300300C944E000C944E000C944E000C944E0004
S11300400C944E000C944E000C944E000C944E00F4
S11300500C944E000C944E000C944E000C944E00E4
S11300600C944E000C944E00730089009F00B50060
S1130070CB00E100F7000D01230139014F016501B7
S11300807B019101A701BD0111241FBECFEFD8E070
S1130090DEBFCDBF0E94D3010C94F0010C9400008C
S11300A08AB180618AB98AB180628AB98AB180646E
S11300B08AB98AB180688AB984B1816084B984B10B
S11300C0826084B984B1846084B984B18F7E84B938
S11300D0089590E08031910508F064C1FC01EC5C66
S11300E0FF4F0C94EA018BB180618BB98BB18062B4
S11300F08BB98BB180648BB98BB180688BB985B1B6
S1130100816085B985B1826085B985B18B7F85B9F8
S113011008958BB18F7E8BB98BB180628BB98BB113
S113012080648BB98BB18F778BB985B18E7F85B99C
S113013085B18D7F85B985B18B7F85B908958BB1E4
S113014080618BB98BB180628BB98BB18F7B8BB99A
S113015085B18D7F85B985B1846085B985B18160AC
S113016085B98BB180688BB908958BB180618BB9E7
S11301708BB180628BB98BB180648BB98BB1806891
S11301808BB985B18E7F85B985B18D7F85B985B1F0
S1130190846085B908958BB18F7E8BB98BB18062F1
S11301A08BB98BB180648BB98BB18F778BB985B1E7
S11301B08E7F85B985B1826085B985B1846085B942
S11301C008958BB180618BB98BB18F7D8BB98BB165
S11301D080648BB98BB180688BB985B18E7F85B90A
S11301E085B1826085B985B1846085B908958BB184
S11301F080618BB98BB18F7D8BB98BB180648BB9E6
S11302008BB180688BB985B1816085B985B1826015
S113021085B985B1846085B908958BB180618BB946
S11302208BB180628BB98BB180648BB98BB18F77C2
S11302308BB985B18E7F85B985B18D7F85B985B13F
S11302408B7F85B908958BB180618BB98BB1806246
S11302508BB98BB180648BB98BB180688BB985B154
S1130260816085B985B1826085B985B1846085B9BD
S113027008958BB180618BB98BB180628BB98BB1DE
S113028080648BB98BB18F778BB985B18E7F85B93B
S113029085B1826085B985B1846085B908958BB1D3
S11302A080618BB98BB180628BB98BB180648BB95F
S11302B08BB18F778BB985B1816085B985B1826047
S11302C085B985B1846085B908958BB18F7E8BB96A
S11302D08BB18F7D8BB98BB180648BB98BB1806806
S11302E08BB985B1816085B985B1826085B985B1E5
S11302F0846085B908958BB180618BB98BB18F7D92
S11303008BB98BB18F7B8BB98BB180688BB985B17D
S1130310816085B985B1826085B985B18B7F85B9E6
S113032008958BB18F7E8BB98BB180628BB98BB101
S113033080648BB98BB180688BB985B1816085B9D4
S113034085B18D7F85B985B1846085B908958BB1F8
S113035080618BB98BB18F7D8BB98BB18F7B8BB95E
S11303608BB180688BB985B1816085B985B18260B4
S113037085B985B1846085B908958BB180618BB9E5
S11303808BB18F7D8BB98BB18F7B8BB98BB18F7711
S11303908BB985B1816085B985B1826085B985B134
S11303A0846085B908950E945000C0E01C99FECF76
S11303B08C2F0E946900CF3011F0CF5F01C0C0E0E4
S11303C02FEF89E698E1215080409040E1F700C08A
S11303D00000ECCFEE0FFF1F0590F491E02D09947F
S10703E0F894FFCFBB
S9030000FC
